{
	"_format": "hh-sol-artifact-1",
	"contractName": "myNFT",
	"sourceName": "contracts/nft.sol",
	"abi": [
		{
			"inputs": [],
			"stateMutability": "nonpayable",
			"type": "constructor"
		},
		{
			"anonymous": false,
			"inputs": [
				{
					"indexed": true,
					"internalType": "address",
					"name": "owner",
					"type": "address"
				},
				{
					"indexed": true,
					"internalType": "address",
					"name": "approved",
					"type": "address"
				},
				{
					"indexed": true,
					"internalType": "uint256",
					"name": "tokenId",
					"type": "uint256"
				}
			],
			"name": "Approval",
			"type": "event"
		},
		{
			"anonymous": false,
			"inputs": [
				{
					"indexed": true,
					"internalType": "address",
					"name": "owner",
					"type": "address"
				},
				{
					"indexed": true,
					"internalType": "address",
					"name": "operator",
					"type": "address"
				},
				{
					"indexed": false,
					"internalType": "bool",
					"name": "approved",
					"type": "bool"
				}
			],
			"name": "ApprovalForAll",
			"type": "event"
		},
		{
			"anonymous": false,
			"inputs": [
				{
					"indexed": true,
					"internalType": "address",
					"name": "previousOwner",
					"type": "address"
				},
				{
					"indexed": true,
					"internalType": "address",
					"name": "newOwner",
					"type": "address"
				}
			],
			"name": "OwnershipTransferred",
			"type": "event"
		},
		{
			"anonymous": false,
			"inputs": [
				{
					"indexed": true,
					"internalType": "address",
					"name": "from",
					"type": "address"
				},
				{
					"indexed": true,
					"internalType": "address",
					"name": "to",
					"type": "address"
				},
				{
					"indexed": true,
					"internalType": "uint256",
					"name": "tokenId",
					"type": "uint256"
				}
			],
			"name": "Transfer",
			"type": "event"
		},
		{
			"inputs": [
				{
					"internalType": "address",
					"name": "to",
					"type": "address"
				},
				{
					"internalType": "uint256",
					"name": "tokenId",
					"type": "uint256"
				}
			],
			"name": "approve",
			"outputs": [],
			"stateMutability": "nonpayable",
			"type": "function"
		},
		{
			"inputs": [
				{
					"internalType": "address",
					"name": "owner",
					"type": "address"
				}
			],
			"name": "balanceOf",
			"outputs": [
				{
					"internalType": "uint256",
					"name": "",
					"type": "uint256"
				}
			],
			"stateMutability": "view",
			"type": "function"
		},
		{
			"inputs": [
				{
					"internalType": "uint256",
					"name": "tokenId",
					"type": "uint256"
				}
			],
			"name": "getApproved",
			"outputs": [
				{
					"internalType": "address",
					"name": "",
					"type": "address"
				}
			],
			"stateMutability": "view",
			"type": "function"
		},
		{
			"inputs": [
				{
					"internalType": "address",
					"name": "owner",
					"type": "address"
				},
				{
					"internalType": "address",
					"name": "operator",
					"type": "address"
				}
			],
			"name": "isApprovedForAll",
			"outputs": [
				{
					"internalType": "bool",
					"name": "",
					"type": "bool"
				}
			],
			"stateMutability": "view",
			"type": "function"
		},
		{
			"inputs": [],
			"name": "mint",
			"outputs": [],
			"stateMutability": "nonpayable",
			"type": "function"
		},
		{
			"inputs": [],
			"name": "name",
			"outputs": [
				{
					"internalType": "string",
					"name": "",
					"type": "string"
				}
			],
			"stateMutability": "view",
			"type": "function"
		},
		{
			"inputs": [],
			"name": "owner",
			"outputs": [
				{
					"internalType": "address",
					"name": "",
					"type": "address"
				}
			],
			"stateMutability": "view",
			"type": "function"
		},
		{
			"inputs": [
				{
					"internalType": "uint256",
					"name": "tokenId",
					"type": "uint256"
				}
			],
			"name": "ownerOf",
			"outputs": [
				{
					"internalType": "address",
					"name": "",
					"type": "address"
				}
			],
			"stateMutability": "view",
			"type": "function"
		},
		{
			"inputs": [],
			"name": "renounceOwnership",
			"outputs": [],
			"stateMutability": "nonpayable",
			"type": "function"
		},
		{
			"inputs": [
				{
					"internalType": "address",
					"name": "from",
					"type": "address"
				},
				{
					"internalType": "address",
					"name": "to",
					"type": "address"
				},
				{
					"internalType": "uint256",
					"name": "tokenId",
					"type": "uint256"
				}
			],
			"name": "safeTransferFrom",
			"outputs": [],
			"stateMutability": "nonpayable",
			"type": "function"
		},
		{
			"inputs": [
				{
					"internalType": "address",
					"name": "from",
					"type": "address"
				},
				{
					"internalType": "address",
					"name": "to",
					"type": "address"
				},
				{
					"internalType": "uint256",
					"name": "tokenId",
					"type": "uint256"
				},
				{
					"internalType": "bytes",
					"name": "data",
					"type": "bytes"
				}
			],
			"name": "safeTransferFrom",
			"outputs": [],
			"stateMutability": "nonpayable",
			"type": "function"
		},
		{
			"inputs": [
				{
					"internalType": "address",
					"name": "operator",
					"type": "address"
				},
				{
					"internalType": "bool",
					"name": "approved",
					"type": "bool"
				}
			],
			"name": "setApprovalForAll",
			"outputs": [],
			"stateMutability": "nonpayable",
			"type": "function"
		},
		{
			"inputs": [
				{
					"internalType": "bytes4",
					"name": "interfaceId",
					"type": "bytes4"
				}
			],
			"name": "supportsInterface",
			"outputs": [
				{
					"internalType": "bool",
					"name": "",
					"type": "bool"
				}
			],
			"stateMutability": "view",
			"type": "function"
		},
		{
			"inputs": [],
			"name": "symbol",
			"outputs": [
				{
					"internalType": "string",
					"name": "",
					"type": "string"
				}
			],
			"stateMutability": "view",
			"type": "function"
		},
		{
			"inputs": [
				{
					"internalType": "uint256",
					"name": "tokenId",
					"type": "uint256"
				}
			],
			"name": "tokenURI",
			"outputs": [
				{
					"internalType": "string",
					"name": "",
					"type": "string"
				}
			],
			"stateMutability": "view",
			"type": "function"
		},
		{
			"inputs": [
				{
					"internalType": "address",
					"name": "from",
					"type": "address"
				},
				{
					"internalType": "address",
					"name": "to",
					"type": "address"
				},
				{
					"internalType": "uint256",
					"name": "tokenId",
					"type": "uint256"
				}
			],
			"name": "transferFrom",
			"outputs": [],
			"stateMutability": "nonpayable",
			"type": "function"
		},
		{
			"inputs": [
				{
					"internalType": "address",
					"name": "newOwner",
					"type": "address"
				}
			],
			"name": "transferOwnership",
			"outputs": [],
			"stateMutability": "nonpayable",
			"type": "function"
		}
	],
	"bytecode": "0x60806040523480156200001157600080fd5b506040518060400160405280600981526020017f416d6d61725f4e465400000000000000000000000000000000000000000000008152506040518060400160405280600381526020017f414d540000000000000000000000000000000000000000000000000000000000815250816000908051906020019062000096929190620001a6565b508060019080519060200190620000af929190620001a6565b505050620000d2620000c6620000d860201b60201c565b620000e060201b60201c565b620002bb565b600033905090565b6000600660009054906101000a900473ffffffffffffffffffffffffffffffffffffffff16905081600660006101000a81548173ffffffffffffffffffffffffffffffffffffffff021916908373ffffffffffffffffffffffffffffffffffffffff1602179055508173ffffffffffffffffffffffffffffffffffffffff168173ffffffffffffffffffffffffffffffffffffffff167f8be0079c531659141344cd1fd0a4f28419497f9722a3daafe3b4186f6b6457e060405160405180910390a35050565b828054620001b49062000256565b90600052602060002090601f016020900481019282620001d8576000855562000224565b82601f10620001f357805160ff191683800117855562000224565b8280016001018555821562000224579182015b828111156200022357825182559160200191906001019062000206565b5b50905062000233919062000237565b5090565b5b808211156200025257600081600090555060010162000238565b5090565b600060028204905060018216806200026f57607f821691505b602082108114156200028657620002856200028c565b5b50919050565b7f4e487b7100000000000000000000000000000000000000000000000000000000600052602260045260246000fd5b61294c80620002cb6000396000f3fe608060405234801561001057600080fd5b506004361061010b5760003560e01c806370a08231116100a2578063a22cb46511610071578063a22cb46514610292578063b88d4fde146102ae578063c87b56dd146102ca578063e985e9c5146102fa578063f2fde38b1461032a5761010b565b806370a082311461021c578063715018a61461024c5780638da5cb5b1461025657806395d89b41146102745761010b565b80631249c58b116100de5780631249c58b146101aa57806323b872dd146101b457806342842e0e146101d05780636352211e146101ec5761010b565b806301ffc9a71461011057806306fdde0314610140578063081812fc1461015e578063095ea7b31461018e575b600080fd5b61012a60048036038101906101259190611dbf565b610346565b604051610137919061215c565b60405180910390f35b610148610428565b6040516101559190612177565b60405180910390f35b61017860048036038101906101739190611e11565b6104ba565b60405161018591906120f5565b60405180910390f35b6101a860048036038101906101a39190611d83565b610500565b005b6101b2610618565b005b6101ce60048036038101906101c99190611c7d565b61063d565b005b6101ea60048036038101906101e59190611c7d565b61069d565b005b61020660048036038101906102019190611e11565b6106bd565b60405161021391906120f5565b60405180910390f35b61023660048036038101906102319190611c18565b610744565b6040516102439190612339565b60405180910390f35b6102546107fc565b005b61025e610810565b60405161026b91906120f5565b60405180910390f35b61027c61083a565b6040516102899190612177565b60405180910390f35b6102ac60048036038101906102a79190611d47565b6108cc565b005b6102c860048036038101906102c39190611ccc565b6108e2565b005b6102e460048036038101906102df9190611e11565b610944565b6040516102f19190612177565b60405180910390f35b610314600480360381019061030f9190611c41565b6109ac565b604051610321919061215c565b60405180910390f35b610344600480360381019061033f9190611c18565b610a40565b005b60007f80ac58cd000000000000000000000000000000000000000000000000000000007bffffffffffffffffffffffffffffffffffffffffffffffffffffffff1916827bffffffffffffffffffffffffffffffffffffffffffffffffffffffff1916148061041157507f5b5e139f000000000000000000000000000000000000000000000000000000007bffffffffffffffffffffffffffffffffffffffffffffffffffffffff1916827bffffffffffffffffffffffffffffffffffffffffffffffffffffffff1916145b80610421575061042082610ac4565b5b9050919050565b606060008054610437906124a3565b80601f0160208091040260200160405190810160405280929190818152602001828054610463906124a3565b80156104b05780601f10610485576101008083540402835291602001916104b0565b820191906000526020600020905b81548152906001019060200180831161049357829003601f168201915b5050505050905090565b60006104c582610b2e565b6004600083815260200190815260200160002060009054906101000a900473ffffffffffffffffffffffffffffffffffffffff169050919050565b600061050b826106bd565b90508073ffffffffffffffffffffffffffffffffffffffff168373ffffffffffffffffffffffffffffffffffffffff16141561057c576040517f08c379a0000000000000000000000000000000000000000000000000000000008152600401610573906122f9565b60405180910390fd5b8073ffffffffffffffffffffffffffffffffffffffff1661059b610b79565b73ffffffffffffffffffffffffffffffffffffffff1614806105ca57506105c9816105c4610b79565b6109ac565b5b610609576040517f08c379a000000000000000000000000000000000000000000000000000000000815260040161060090612319565b60405180910390fd5b6106138383610b81565b505050565b6106226007610c3a565b600061062e6007610c50565b905061063a3382610c5e565b50565b61064e610648610b79565b82610c7c565b61068d576040517f08c379a000000000000000000000000000000000000000000000000000000000815260040161068490612199565b60405180910390fd5b610698838383610d11565b505050565b6106b8838383604051806020016040528060008152506108e2565b505050565b6000806106c98361100b565b9050600073ffffffffffffffffffffffffffffffffffffffff168173ffffffffffffffffffffffffffffffffffffffff16141561073b576040517f08c379a0000000000000000000000000000000000000000000000000000000008152600401610732906122d9565b60405180910390fd5b80915050919050565b60008073ffffffffffffffffffffffffffffffffffffffff168273ffffffffffffffffffffffffffffffffffffffff1614156107b5576040517f08c379a00000000000000000000000000000000000000000000000000000000081526004016107ac90612279565b60405180910390fd5b600360008373ffffffffffffffffffffffffffffffffffffffff1673ffffffffffffffffffffffffffffffffffffffff168152602001908152602001600020549050919050565b610804611048565b61080e60006110c6565b565b6000600660009054906101000a900473ffffffffffffffffffffffffffffffffffffffff16905090565b606060018054610849906124a3565b80601f0160208091040260200160405190810160405280929190818152602001828054610875906124a3565b80156108c25780601f10610897576101008083540402835291602001916108c2565b820191906000526020600020905b8154815290600101906020018083116108a557829003601f168201915b5050505050905090565b6108de6108d7610b79565b838361118c565b5050565b6108f36108ed610b79565b83610c7c565b610932576040517f08c379a000000000000000000000000000000000000000000000000000000000815260040161092990612199565b60405180910390fd5b61093e848484846112f9565b50505050565b606061094f82610b2e565b6000610959611355565b9050600081511161097957604051806020016040528060008152506109a4565b806109838461136c565b6040516020016109949291906120d1565b6040516020818303038152906040525b915050919050565b6000600560008473ffffffffffffffffffffffffffffffffffffffff1673ffffffffffffffffffffffffffffffffffffffff16815260200190815260200160002060008373ffffffffffffffffffffffffffffffffffffffff1673ffffffffffffffffffffffffffffffffffffffff16815260200190815260200160002060009054906101000a900460ff16905092915050565b610a48611048565b600073ffffffffffffffffffffffffffffffffffffffff168173ffffffffffffffffffffffffffffffffffffffff161415610ab8576040517f08c379a0000000000000000000000000000000000000000000000000000000008152600401610aaf906121d9565b60405180910390fd5b610ac1816110c6565b50565b60007f01ffc9a7000000000000000000000000000000000000000000000000000000007bffffffffffffffffffffffffffffffffffffffffffffffffffffffff1916827bffffffffffffffffffffffffffffffffffffffffffffffffffffffff1916149050919050565b610b3781611490565b610b76576040517f08c379a0000000000000000000000000000000000000000000000000000000008152600401610b6d906122d9565b60405180910390fd5b50565b600033905090565b816004600083815260200190815260200160002060006101000a81548173ffffffffffffffffffffffffffffffffffffffff021916908373ffffffffffffffffffffffffffffffffffffffff160217905550808273ffffffffffffffffffffffffffffffffffffffff16610bf4836106bd565b73ffffffffffffffffffffffffffffffffffffffff167f8c5be1e5ebec7d5bd14f71427d1e84f3dd0314c0f7b2291e5b200ac8c7c3b92560405160405180910390a45050565b6001816000016000828254019250508190555050565b600081600001549050919050565b610c788282604051806020016040528060008152506114d1565b5050565b600080610c88836106bd565b90508073ffffffffffffffffffffffffffffffffffffffff168473ffffffffffffffffffffffffffffffffffffffff161480610cca5750610cc981856109ac565b5b80610d0857508373ffffffffffffffffffffffffffffffffffffffff16610cf0846104ba565b73ffffffffffffffffffffffffffffffffffffffff16145b91505092915050565b8273ffffffffffffffffffffffffffffffffffffffff16610d31826106bd565b73ffffffffffffffffffffffffffffffffffffffff1614610d87576040517f08c379a0000000000000000000000000000000000000000000000000000000008152600401610d7e906121f9565b60405180910390fd5b600073ffffffffffffffffffffffffffffffffffffffff168273ffffffffffffffffffffffffffffffffffffffff161415610df7576040517f08c379a0000000000000000000000000000000000000000000000000000000008152600401610dee90612239565b60405180910390fd5b610e04838383600161152c565b8273ffffffffffffffffffffffffffffffffffffffff16610e24826106bd565b73ffffffffffffffffffffffffffffffffffffffff1614610e7a576040517f08c379a0000000000000000000000000000000000000000000000000000000008152600401610e71906121f9565b60405180910390fd5b6004600082815260200190815260200160002060006101000a81549073ffffffffffffffffffffffffffffffffffffffff02191690556001600360008573ffffffffffffffffffffffffffffffffffffffff1673ffffffffffffffffffffffffffffffffffffffff168152602001908152602001600020600082825403925050819055506001600360008473ffffffffffffffffffffffffffffffffffffffff1673ffffffffffffffffffffffffffffffffffffffff16815260200190815260200160002060008282540192505081905550816002600083815260200190815260200160002060006101000a81548173ffffffffffffffffffffffffffffffffffffffff021916908373ffffffffffffffffffffffffffffffffffffffff160217905550808273ffffffffffffffffffffffffffffffffffffffff168473ffffffffffffffffffffffffffffffffffffffff167fddf252ad1be2c89b69c2b068fc378daa952ba7f163c4a11628f55a4df523b3ef60405160405180910390a46110068383836001611532565b505050565b60006002600083815260200190815260200160002060009054906101000a900473ffffffffffffffffffffffffffffffffffffffff169050919050565b611050610b79565b73ffffffffffffffffffffffffffffffffffffffff1661106e610810565b73ffffffffffffffffffffffffffffffffffffffff16146110c4576040517f08c379a00000000000000000000000000000000000000000000000000000000081526004016110bb906122b9565b60405180910390fd5b565b6000600660009054906101000a900473ffffffffffffffffffffffffffffffffffffffff16905081600660006101000a81548173ffffffffffffffffffffffffffffffffffffffff021916908373ffffffffffffffffffffffffffffffffffffffff1602179055508173ffffffffffffffffffffffffffffffffffffffff168173ffffffffffffffffffffffffffffffffffffffff167f8be0079c531659141344cd1fd0a4f28419497f9722a3daafe3b4186f6b6457e060405160405180910390a35050565b8173ffffffffffffffffffffffffffffffffffffffff168373ffffffffffffffffffffffffffffffffffffffff1614156111fb576040517f08c379a00000000000000000000000000000000000000000000000000000000081526004016111f290612259565b60405180910390fd5b80600560008573ffffffffffffffffffffffffffffffffffffffff1673ffffffffffffffffffffffffffffffffffffffff16815260200190815260200160002060008473ffffffffffffffffffffffffffffffffffffffff1673ffffffffffffffffffffffffffffffffffffffff16815260200190815260200160002060006101000a81548160ff0219169083151502179055508173ffffffffffffffffffffffffffffffffffffffff168373ffffffffffffffffffffffffffffffffffffffff167f17307eab39ab6107e8899845ad3d59bd9653f200f220920489ca2b5937696c31836040516112ec919061215c565b60405180910390a3505050565b611304848484610d11565b61131084848484611538565b61134f576040517f08c379a0000000000000000000000000000000000000000000000000000000008152600401611346906121b9565b60405180910390fd5b50505050565b606060405180602001604052806000815250905090565b60606000600161137b846116cf565b01905060008167ffffffffffffffff8111156113c0577f4e487b7100000000000000000000000000000000000000000000000000000000600052604160045260246000fd5b6040519080825280601f01601f1916602001820160405280156113f25781602001600182028036833780820191505090505b509050600082602001820190505b600115611485578080600190039150507f3031323334353637383961626364656600000000000000000000000000000000600a86061a8153600a858161146f577f4e487b7100000000000000000000000000000000000000000000000000000000600052601260045260246000fd5b049450600085141561148057611485565b611400565b819350505050919050565b60008073ffffffffffffffffffffffffffffffffffffffff166114b28361100b565b73ffffffffffffffffffffffffffffffffffffffff1614159050919050565b6114db8383611906565b6114e86000848484611538565b611527576040517f08c379a000000000000000000000000000000000000000000000000000000000815260040161151e906121b9565b60405180910390fd5b505050565b50505050565b50505050565b60006115598473ffffffffffffffffffffffffffffffffffffffff16611b24565b156116c2578373ffffffffffffffffffffffffffffffffffffffff1663150b7a02611582610b79565b8786866040518563ffffffff1660e01b81526004016115a49493929190612110565b602060405180830381600087803b1580156115be57600080fd5b505af19250505080156115ef57506040513d601f19601f820116820180604052508101906115ec9190611de8565b60015b611672573d806000811461161f576040519150601f19603f3d011682016040523d82523d6000602084013e611624565b606091505b5060008151141561166a576040517f08c379a0000000000000000000000000000000000000000000000000000000008152600401611661906121b9565b60405180910390fd5b805181602001fd5b63150b7a0260e01b7bffffffffffffffffffffffffffffffffffffffffffffffffffffffff1916817bffffffffffffffffffffffffffffffffffffffffffffffffffffffff1916149150506116c7565b600190505b949350505050565b600080600090507a184f03e93ff9f4daa797ed6e38ed64bf6a1f0100000000000000008310611753577a184f03e93ff9f4daa797ed6e38ed64bf6a1f0100000000000000008381611749577f4e487b7100000000000000000000000000000000000000000000000000000000600052601260045260246000fd5b0492506040810190505b6d04ee2d6d415b85acef810000000083106117b6576d04ee2d6d415b85acef810000000083816117ac577f4e487b7100000000000000000000000000000000000000000000000000000000600052601260045260246000fd5b0492506020810190505b662386f26fc10000831061180b57662386f26fc100008381611801577f4e487b7100000000000000000000000000000000000000000000000000000000600052601260045260246000fd5b0492506010810190505b6305f5e100831061185a576305f5e1008381611850577f4e487b7100000000000000000000000000000000000000000000000000000000600052601260045260246000fd5b0492506008810190505b61271083106118a557612710838161189b577f4e487b7100000000000000000000000000000000000000000000000000000000600052601260045260246000fd5b0492506004810190505b606483106118ee57606483816118e4577f4e487b7100000000000000000000000000000000000000000000000000000000600052601260045260246000fd5b0492506002810190505b600a83106118fd576001810190505b80915050919050565b600073ffffffffffffffffffffffffffffffffffffffff168273ffffffffffffffffffffffffffffffffffffffff161415611976576040517f08c379a000000000000000000000000000000000000000000000000000000000815260040161196d90612299565b60405180910390fd5b61197f81611490565b156119bf576040517f08c379a00000000000000000000000000000000000000000000000000000000081526004016119b690612219565b60405180910390fd5b6119cd60008383600161152c565b6119d681611490565b15611a16576040517f08c379a0000000000000000000000000000000000000000000000000000000008152600401611a0d90612219565b60405180910390fd5b6001600360008473ffffffffffffffffffffffffffffffffffffffff1673ffffffffffffffffffffffffffffffffffffffff16815260200190815260200160002060008282540192505081905550816002600083815260200190815260200160002060006101000a81548173ffffffffffffffffffffffffffffffffffffffff021916908373ffffffffffffffffffffffffffffffffffffffff160217905550808273ffffffffffffffffffffffffffffffffffffffff16600073ffffffffffffffffffffffffffffffffffffffff167fddf252ad1be2c89b69c2b068fc378daa952ba7f163c4a11628f55a4df523b3ef60405160405180910390a4611b20600083836001611532565b5050565b6000808273ffffffffffffffffffffffffffffffffffffffff163b119050919050565b6000611b5a611b5584612379565b612354565b905082815260208101848484011115611b7257600080fd5b611b7d848285612461565b509392505050565b600081359050611b94816128ba565b92915050565b600081359050611ba9816128d1565b92915050565b600081359050611bbe816128e8565b92915050565b600081519050611bd3816128e8565b92915050565b600082601f830112611bea57600080fd5b8135611bfa848260208601611b47565b91505092915050565b600081359050611c12816128ff565b92915050565b600060208284031215611c2a57600080fd5b6000611c3884828501611b85565b91505092915050565b60008060408385031215611c5457600080fd5b6000611c6285828601611b85565b9250506020611c7385828601611b85565b9150509250929050565b600080600060608486031215611c9257600080fd5b6000611ca086828701611b85565b9350506020611cb186828701611b85565b9250506040611cc286828701611c03565b9150509250925092565b60008060008060808587031215611ce257600080fd5b6000611cf087828801611b85565b9450506020611d0187828801611b85565b9350506040611d1287828801611c03565b925050606085013567ffffffffffffffff811115611d2f57600080fd5b611d3b87828801611bd9565b91505092959194509250565b60008060408385031215611d5a57600080fd5b6000611d6885828601611b85565b9250506020611d7985828601611b9a565b9150509250929050565b60008060408385031215611d9657600080fd5b6000611da485828601611b85565b9250506020611db585828601611c03565b9150509250929050565b600060208284031215611dd157600080fd5b6000611ddf84828501611baf565b91505092915050565b600060208284031215611dfa57600080fd5b6000611e0884828501611bc4565b91505092915050565b600060208284031215611e2357600080fd5b6000611e3184828501611c03565b91505092915050565b611e43816123ed565b82525050565b611e52816123ff565b82525050565b6000611e63826123aa565b611e6d81856123c0565b9350611e7d818560208601612470565b611e8681612564565b840191505092915050565b6000611e9c826123b5565b611ea681856123d1565b9350611eb6818560208601612470565b611ebf81612564565b840191505092915050565b6000611ed5826123b5565b611edf81856123e2565b9350611eef818560208601612470565b80840191505092915050565b6000611f08602d836123d1565b9150611f1382612575565b604082019050919050565b6000611f2b6032836123d1565b9150611f36826125c4565b604082019050919050565b6000611f4e6026836123d1565b9150611f5982612613565b604082019050919050565b6000611f716025836123d1565b9150611f7c82612662565b604082019050919050565b6000611f94601c836123d1565b9150611f9f826126b1565b602082019050919050565b6000611fb76024836123d1565b9150611fc2826126da565b604082019050919050565b6000611fda6019836123d1565b9150611fe582612729565b602082019050919050565b6000611ffd6029836123d1565b915061200882612752565b604082019050919050565b60006120206020836123d1565b915061202b826127a1565b602082019050919050565b60006120436020836123d1565b915061204e826127ca565b602082019050919050565b60006120666018836123d1565b9150612071826127f3565b602082019050919050565b60006120896021836123d1565b91506120948261281c565b604082019050919050565b60006120ac603d836123d1565b91506120b78261286b565b604082019050919050565b6120cb81612457565b82525050565b60006120dd8285611eca565b91506120e98284611eca565b91508190509392505050565b600060208201905061210a6000830184611e3a565b92915050565b60006080820190506121256000830187611e3a565b6121326020830186611e3a565b61213f60408301856120c2565b81810360608301526121518184611e58565b905095945050505050565b60006020820190506121716000830184611e49565b92915050565b600060208201905081810360008301526121918184611e91565b905092915050565b600060208201905081810360008301526121b281611efb565b9050919050565b600060208201905081810360008301526121d281611f1e565b9050919050565b600060208201905081810360008301526121f281611f41565b9050919050565b6000602082019050818103600083015261221281611f64565b9050919050565b6000602082019050818103600083015261223281611f87565b9050919050565b6000602082019050818103600083015261225281611faa565b9050919050565b6000602082019050818103600083015261227281611fcd565b9050919050565b6000602082019050818103600083015261229281611ff0565b9050919050565b600060208201905081810360008301526122b281612013565b9050919050565b600060208201905081810360008301526122d281612036565b9050919050565b600060208201905081810360008301526122f281612059565b9050919050565b600060208201905081810360008301526123128161207c565b9050919050565b600060208201905081810360008301526123328161209f565b9050919050565b600060208201905061234e60008301846120c2565b92915050565b600061235e61236f565b905061236a82826124d5565b919050565b6000604051905090565b600067ffffffffffffffff82111561239457612393612535565b5b61239d82612564565b9050602081019050919050565b600081519050919050565b600081519050919050565b600082825260208201905092915050565b600082825260208201905092915050565b600081905092915050565b60006123f882612437565b9050919050565b60008115159050919050565b60007fffffffff0000000000000000000000000000000000000000000000000000000082169050919050565b600073ffffffffffffffffffffffffffffffffffffffff82169050919050565b6000819050919050565b82818337600083830152505050565b60005b8381101561248e578082015181840152602081019050612473565b8381111561249d576000848401525b50505050565b600060028204905060018216806124bb57607f821691505b602082108114156124cf576124ce612506565b5b50919050565b6124de82612564565b810181811067ffffffffffffffff821117156124fd576124fc612535565b5b80604052505050565b7f4e487b7100000000000000000000000000000000000000000000000000000000600052602260045260246000fd5b7f4e487b7100000000000000000000000000000000000000000000000000000000600052604160045260246000fd5b6000601f19601f8301169050919050565b7f4552433732313a2063616c6c6572206973206e6f7420746f6b656e206f776e6560008201527f72206f7220617070726f76656400000000000000000000000000000000000000602082015250565b7f4552433732313a207472616e7366657220746f206e6f6e20455243373231526560008201527f63656976657220696d706c656d656e7465720000000000000000000000000000602082015250565b7f4f776e61626c653a206e6577206f776e657220697320746865207a65726f206160008201527f6464726573730000000000000000000000000000000000000000000000000000602082015250565b7f4552433732313a207472616e736665722066726f6d20696e636f72726563742060008201527f6f776e6572000000000000000000000000000000000000000000000000000000602082015250565b7f4552433732313a20746f6b656e20616c7265616479206d696e74656400000000600082015250565b7f4552433732313a207472616e7366657220746f20746865207a65726f2061646460008201527f7265737300000000000000000000000000000000000000000000000000000000602082015250565b7f4552433732313a20617070726f766520746f2063616c6c657200000000000000600082015250565b7f4552433732313a2061646472657373207a65726f206973206e6f74206120766160008201527f6c6964206f776e65720000000000000000000000000000000000000000000000602082015250565b7f4552433732313a206d696e7420746f20746865207a65726f2061646472657373600082015250565b7f4f776e61626c653a2063616c6c6572206973206e6f7420746865206f776e6572600082015250565b7f4552433732313a20696e76616c696420746f6b656e2049440000000000000000600082015250565b7f4552433732313a20617070726f76616c20746f2063757272656e74206f776e6560008201527f7200000000000000000000000000000000000000000000000000000000000000602082015250565b7f4552433732313a20617070726f76652063616c6c6572206973206e6f7420746f60008201527f6b656e206f776e6572206f7220617070726f76656420666f7220616c6c000000602082015250565b6128c3816123ed565b81146128ce57600080fd5b50565b6128da816123ff565b81146128e557600080fd5b50565b6128f18161240b565b81146128fc57600080fd5b50565b61290881612457565b811461291357600080fd5b5056fea2646970667358221220e0895fc4ab85e5640207c9d3250e801cf86401335a03b7c547320fc9479ee0db64736f6c63430008010033",
	"linkReferences": {},
	"deployedLinkReferences": {}
}